{
  "_format": "hh-sol-artifact-1",
  "contractName": "CarContract",
  "sourceName": "contracts/CarContract.sol",
  "abi": [
    {
      "inputs": [
        {
          "internalType": "string",
          "name": "_name",
          "type": "string"
        },
        {
          "internalType": "string",
          "name": "_symbol",
          "type": "string"
        }
      ],
      "stateMutability": "nonpayable",
      "type": "constructor"
    },
    {
      "inputs": [
        {
          "internalType": "address",
          "name": "sender",
          "type": "address"
        },
        {
          "internalType": "uint256",
          "name": "tokenId",
          "type": "uint256"
        },
        {
          "internalType": "address",
          "name": "owner",
          "type": "address"
        }
      ],
      "name": "ERC721IncorrectOwner",
      "type": "error"
    },
    {
      "inputs": [
        {
          "internalType": "address",
          "name": "operator",
          "type": "address"
        },
        {
          "internalType": "uint256",
          "name": "tokenId",
          "type": "uint256"
        }
      ],
      "name": "ERC721InsufficientApproval",
      "type": "error"
    },
    {
      "inputs": [
        {
          "internalType": "address",
          "name": "approver",
          "type": "address"
        }
      ],
      "name": "ERC721InvalidApprover",
      "type": "error"
    },
    {
      "inputs": [
        {
          "internalType": "address",
          "name": "operator",
          "type": "address"
        }
      ],
      "name": "ERC721InvalidOperator",
      "type": "error"
    },
    {
      "inputs": [
        {
          "internalType": "address",
          "name": "owner",
          "type": "address"
        }
      ],
      "name": "ERC721InvalidOwner",
      "type": "error"
    },
    {
      "inputs": [
        {
          "internalType": "address",
          "name": "receiver",
          "type": "address"
        }
      ],
      "name": "ERC721InvalidReceiver",
      "type": "error"
    },
    {
      "inputs": [
        {
          "internalType": "address",
          "name": "sender",
          "type": "address"
        }
      ],
      "name": "ERC721InvalidSender",
      "type": "error"
    },
    {
      "inputs": [
        {
          "internalType": "uint256",
          "name": "tokenId",
          "type": "uint256"
        }
      ],
      "name": "ERC721NonexistentToken",
      "type": "error"
    },
    {
      "inputs": [
        {
          "internalType": "address",
          "name": "owner",
          "type": "address"
        }
      ],
      "name": "OwnableInvalidOwner",
      "type": "error"
    },
    {
      "inputs": [
        {
          "internalType": "address",
          "name": "account",
          "type": "address"
        }
      ],
      "name": "OwnableUnauthorizedAccount",
      "type": "error"
    },
    {
      "anonymous": false,
      "inputs": [
        {
          "indexed": true,
          "internalType": "address",
          "name": "owner",
          "type": "address"
        },
        {
          "indexed": true,
          "internalType": "address",
          "name": "approved",
          "type": "address"
        },
        {
          "indexed": true,
          "internalType": "uint256",
          "name": "tokenId",
          "type": "uint256"
        }
      ],
      "name": "Approval",
      "type": "event"
    },
    {
      "anonymous": false,
      "inputs": [
        {
          "indexed": true,
          "internalType": "address",
          "name": "owner",
          "type": "address"
        },
        {
          "indexed": true,
          "internalType": "address",
          "name": "operator",
          "type": "address"
        },
        {
          "indexed": false,
          "internalType": "bool",
          "name": "approved",
          "type": "bool"
        }
      ],
      "name": "ApprovalForAll",
      "type": "event"
    },
    {
      "anonymous": false,
      "inputs": [
        {
          "components": [
            {
              "internalType": "string",
              "name": "brand",
              "type": "string"
            },
            {
              "internalType": "string",
              "name": "model",
              "type": "string"
            },
            {
              "internalType": "uint16",
              "name": "year",
              "type": "uint16"
            },
            {
              "internalType": "uint16",
              "name": "price",
              "type": "uint16"
            },
            {
              "internalType": "uint64",
              "name": "kilometers",
              "type": "uint64"
            },
            {
              "internalType": "address",
              "name": "owner",
              "type": "address"
            },
            {
              "internalType": "string",
              "name": "state",
              "type": "string"
            }
          ],
          "indexed": false,
          "internalType": "struct CarContract.Car",
          "name": "newCar",
          "type": "tuple"
        }
      ],
      "name": "CarCreated",
      "type": "event"
    },
    {
      "anonymous": false,
      "inputs": [
        {
          "indexed": false,
          "internalType": "uint256",
          "name": "carId",
          "type": "uint256"
        },
        {
          "indexed": false,
          "internalType": "string",
          "name": "value",
          "type": "string"
        }
      ],
      "name": "CarStateChanged",
      "type": "event"
    },
    {
      "anonymous": false,
      "inputs": [
        {
          "indexed": true,
          "internalType": "address",
          "name": "previousOwner",
          "type": "address"
        },
        {
          "indexed": true,
          "internalType": "address",
          "name": "newOwner",
          "type": "address"
        }
      ],
      "name": "OwnershipTransferred",
      "type": "event"
    },
    {
      "anonymous": false,
      "inputs": [
        {
          "indexed": true,
          "internalType": "address",
          "name": "from",
          "type": "address"
        },
        {
          "indexed": true,
          "internalType": "address",
          "name": "to",
          "type": "address"
        },
        {
          "indexed": true,
          "internalType": "uint256",
          "name": "tokenId",
          "type": "uint256"
        }
      ],
      "name": "Transfer",
      "type": "event"
    },
    {
      "inputs": [],
      "name": "MAX_SUPPLY",
      "outputs": [
        {
          "internalType": "uint16",
          "name": "",
          "type": "uint16"
        }
      ],
      "stateMutability": "view",
      "type": "function"
    },
    {
      "inputs": [
        {
          "internalType": "address",
          "name": "to",
          "type": "address"
        },
        {
          "internalType": "uint256",
          "name": "tokenId",
          "type": "uint256"
        }
      ],
      "name": "approve",
      "outputs": [],
      "stateMutability": "nonpayable",
      "type": "function"
    },
    {
      "inputs": [
        {
          "internalType": "address",
          "name": "owner",
          "type": "address"
        }
      ],
      "name": "balanceOf",
      "outputs": [
        {
          "internalType": "uint256",
          "name": "",
          "type": "uint256"
        }
      ],
      "stateMutability": "view",
      "type": "function"
    },
    {
      "inputs": [
        {
          "internalType": "uint256",
          "name": "",
          "type": "uint256"
        }
      ],
      "name": "cars",
      "outputs": [
        {
          "internalType": "string",
          "name": "brand",
          "type": "string"
        },
        {
          "internalType": "string",
          "name": "model",
          "type": "string"
        },
        {
          "internalType": "uint16",
          "name": "year",
          "type": "uint16"
        },
        {
          "internalType": "uint16",
          "name": "price",
          "type": "uint16"
        },
        {
          "internalType": "uint64",
          "name": "kilometers",
          "type": "uint64"
        },
        {
          "internalType": "address",
          "name": "owner",
          "type": "address"
        },
        {
          "internalType": "string",
          "name": "state",
          "type": "string"
        }
      ],
      "stateMutability": "view",
      "type": "function"
    },
    {
      "inputs": [
        {
          "internalType": "string",
          "name": "brand",
          "type": "string"
        },
        {
          "internalType": "string",
          "name": "model",
          "type": "string"
        },
        {
          "internalType": "uint16",
          "name": "year",
          "type": "uint16"
        },
        {
          "internalType": "uint16",
          "name": "price",
          "type": "uint16"
        }
      ],
      "name": "createCar",
      "outputs": [
        {
          "internalType": "uint256",
          "name": "",
          "type": "uint256"
        }
      ],
      "stateMutability": "nonpayable",
      "type": "function"
    },
    {
      "inputs": [
        {
          "internalType": "uint256",
          "name": "tokenId",
          "type": "uint256"
        }
      ],
      "name": "getApproved",
      "outputs": [
        {
          "internalType": "address",
          "name": "",
          "type": "address"
        }
      ],
      "stateMutability": "view",
      "type": "function"
    },
    {
      "inputs": [
        {
          "internalType": "uint256",
          "name": "carId",
          "type": "uint256"
        }
      ],
      "name": "getCar",
      "outputs": [
        {
          "components": [
            {
              "internalType": "string",
              "name": "brand",
              "type": "string"
            },
            {
              "internalType": "string",
              "name": "model",
              "type": "string"
            },
            {
              "internalType": "uint16",
              "name": "year",
              "type": "uint16"
            },
            {
              "internalType": "uint16",
              "name": "price",
              "type": "uint16"
            },
            {
              "internalType": "uint64",
              "name": "kilometers",
              "type": "uint64"
            },
            {
              "internalType": "address",
              "name": "owner",
              "type": "address"
            },
            {
              "internalType": "string",
              "name": "state",
              "type": "string"
            }
          ],
          "internalType": "struct CarContract.Car",
          "name": "",
          "type": "tuple"
        }
      ],
      "stateMutability": "view",
      "type": "function"
    },
    {
      "inputs": [
        {
          "internalType": "address",
          "name": "owner",
          "type": "address"
        },
        {
          "internalType": "address",
          "name": "operator",
          "type": "address"
        }
      ],
      "name": "isApprovedForAll",
      "outputs": [
        {
          "internalType": "bool",
          "name": "",
          "type": "bool"
        }
      ],
      "stateMutability": "view",
      "type": "function"
    },
    {
      "inputs": [],
      "name": "name",
      "outputs": [
        {
          "internalType": "string",
          "name": "",
          "type": "string"
        }
      ],
      "stateMutability": "view",
      "type": "function"
    },
    {
      "inputs": [],
      "name": "owner",
      "outputs": [
        {
          "internalType": "address",
          "name": "",
          "type": "address"
        }
      ],
      "stateMutability": "view",
      "type": "function"
    },
    {
      "inputs": [
        {
          "internalType": "uint256",
          "name": "tokenId",
          "type": "uint256"
        }
      ],
      "name": "ownerOf",
      "outputs": [
        {
          "internalType": "address",
          "name": "",
          "type": "address"
        }
      ],
      "stateMutability": "view",
      "type": "function"
    },
    {
      "inputs": [
        {
          "internalType": "uint256",
          "name": "carId",
          "type": "uint256"
        },
        {
          "internalType": "uint16",
          "name": "price",
          "type": "uint16"
        },
        {
          "internalType": "uint64",
          "name": "kilometers",
          "type": "uint64"
        }
      ],
      "name": "putCarOnSale",
      "outputs": [],
      "stateMutability": "nonpayable",
      "type": "function"
    },
    {
      "inputs": [],
      "name": "renounceOwnership",
      "outputs": [],
      "stateMutability": "nonpayable",
      "type": "function"
    },
    {
      "inputs": [
        {
          "internalType": "address",
          "name": "from",
          "type": "address"
        },
        {
          "internalType": "address",
          "name": "to",
          "type": "address"
        },
        {
          "internalType": "uint256",
          "name": "tokenId",
          "type": "uint256"
        }
      ],
      "name": "safeTransferFrom",
      "outputs": [],
      "stateMutability": "nonpayable",
      "type": "function"
    },
    {
      "inputs": [
        {
          "internalType": "address",
          "name": "from",
          "type": "address"
        },
        {
          "internalType": "address",
          "name": "to",
          "type": "address"
        },
        {
          "internalType": "uint256",
          "name": "tokenId",
          "type": "uint256"
        },
        {
          "internalType": "bytes",
          "name": "data",
          "type": "bytes"
        }
      ],
      "name": "safeTransferFrom",
      "outputs": [],
      "stateMutability": "nonpayable",
      "type": "function"
    },
    {
      "inputs": [
        {
          "internalType": "uint256",
          "name": "carId",
          "type": "uint256"
        },
        {
          "internalType": "address",
          "name": "newOwner",
          "type": "address"
        }
      ],
      "name": "sellCar",
      "outputs": [],
      "stateMutability": "nonpayable",
      "type": "function"
    },
    {
      "inputs": [
        {
          "internalType": "address",
          "name": "operator",
          "type": "address"
        },
        {
          "internalType": "bool",
          "name": "approved",
          "type": "bool"
        }
      ],
      "name": "setApprovalForAll",
      "outputs": [],
      "stateMutability": "nonpayable",
      "type": "function"
    },
    {
      "inputs": [
        {
          "internalType": "bytes4",
          "name": "interfaceId",
          "type": "bytes4"
        }
      ],
      "name": "supportsInterface",
      "outputs": [
        {
          "internalType": "bool",
          "name": "",
          "type": "bool"
        }
      ],
      "stateMutability": "view",
      "type": "function"
    },
    {
      "inputs": [],
      "name": "symbol",
      "outputs": [
        {
          "internalType": "string",
          "name": "",
          "type": "string"
        }
      ],
      "stateMutability": "view",
      "type": "function"
    },
    {
      "inputs": [
        {
          "internalType": "uint256",
          "name": "tokenId",
          "type": "uint256"
        }
      ],
      "name": "tokenURI",
      "outputs": [
        {
          "internalType": "string",
          "name": "",
          "type": "string"
        }
      ],
      "stateMutability": "view",
      "type": "function"
    },
    {
      "inputs": [
        {
          "internalType": "address",
          "name": "from",
          "type": "address"
        },
        {
          "internalType": "address",
          "name": "to",
          "type": "address"
        },
        {
          "internalType": "uint256",
          "name": "tokenId",
          "type": "uint256"
        }
      ],
      "name": "transferFrom",
      "outputs": [],
      "stateMutability": "nonpayable",
      "type": "function"
    },
    {
      "inputs": [
        {
          "internalType": "address",
          "name": "newOwner",
          "type": "address"
        }
      ],
      "name": "transferOwnership",
      "outputs": [],
      "stateMutability": "nonpayable",
      "type": "function"
    }
  ],
  "bytecode": "0x60a0604052600060085534801561001557600080fd5b50604051613be0380380613be083398181016040528101906100379190610320565b338282816000908161004991906105b9565b50806001908161005991906105b9565b505050600073ffffffffffffffffffffffffffffffffffffffff168173ffffffffffffffffffffffffffffffffffffffff16036100ce5760006040517f1e4fbdf70000000000000000000000000000000000000000000000000000000081526004016100c591906106cc565b60405180910390fd5b6100dd816100e560201b60201c565b5050506106e7565b6000600660009054906101000a900473ffffffffffffffffffffffffffffffffffffffff16905081600660006101000a81548173ffffffffffffffffffffffffffffffffffffffff021916908373ffffffffffffffffffffffffffffffffffffffff1602179055508173ffffffffffffffffffffffffffffffffffffffff168173ffffffffffffffffffffffffffffffffffffffff167f8be0079c531659141344cd1fd0a4f28419497f9722a3daafe3b4186f6b6457e060405160405180910390a35050565b6000604051905090565b600080fd5b600080fd5b600080fd5b600080fd5b6000601f19601f8301169050919050565b7f4e487b7100000000000000000000000000000000000000000000000000000000600052604160045260246000fd5b610212826101c9565b810181811067ffffffffffffffff82111715610231576102306101da565b5b80604052505050565b60006102446101ab565b90506102508282610209565b919050565b600067ffffffffffffffff8211156102705761026f6101da565b5b610279826101c9565b9050602081019050919050565b60005b838110156102a4578082015181840152602081019050610289565b60008484015250505050565b60006102c36102be84610255565b61023a565b9050828152602081018484840111156102df576102de6101c4565b5b6102ea848285610286565b509392505050565b600082601f830112610307576103066101bf565b5b81516103178482602086016102b0565b91505092915050565b60008060408385031215610337576103366101b5565b5b600083015167ffffffffffffffff811115610355576103546101ba565b5b610361858286016102f2565b925050602083015167ffffffffffffffff811115610382576103816101ba565b5b61038e858286016102f2565b9150509250929050565b600081519050919050565b7f4e487b7100000000000000000000000000000000000000000000000000000000600052602260045260246000fd5b600060028204905060018216806103ea57607f821691505b6020821081036103fd576103fc6103a3565b5b50919050565b60008190508160005260206000209050919050565b60006020601f8301049050919050565b600082821b905092915050565b6000600883026104657fffffffffffffffffffffffffffffffffffffffffffffffffffffffffffffffff82610428565b61046f8683610428565b95508019841693508086168417925050509392505050565b6000819050919050565b6000819050919050565b60006104b66104b16104ac84610487565b610491565b610487565b9050919050565b6000819050919050565b6104d08361049b565b6104e46104dc826104bd565b848454610435565b825550505050565b600090565b6104f96104ec565b6105048184846104c7565b505050565b5b818110156105285761051d6000826104f1565b60018101905061050a565b5050565b601f82111561056d5761053e81610403565b61054784610418565b81016020851015610556578190505b61056a61056285610418565b830182610509565b50505b505050565b600082821c905092915050565b600061059060001984600802610572565b1980831691505092915050565b60006105a9838361057f565b9150826002028217905092915050565b6105c282610398565b67ffffffffffffffff8111156105db576105da6101da565b5b6105e582546103d2565b6105f082828561052c565b600060209050601f8311600181146106235760008415610611578287015190505b61061b858261059d565b865550610683565b601f19841661063186610403565b60005b8281101561065957848901518255600182019150602085019450602081019050610634565b868310156106765784890151610672601f89168261057f565b8355505b6001600288020188555050505b505050505050565b600073ffffffffffffffffffffffffffffffffffffffff82169050919050565b60006106b68261068b565b9050919050565b6106c6816106ab565b82525050565b60006020820190506106e160008301846106bd565b92915050565b6080516134de61070260003960006108b001526134de6000f3fe608060405234801561001057600080fd5b50600436106101425760003560e01c80636352211e116100b8578063a22cb4651161007c578063a22cb46514610375578063b88d4fde14610391578063c87b56dd146103ad578063e985e9c5146103dd578063f2fde38b1461040d578063f7746e361461042957610142565b80636352211e146102cf57806370a08231146102ff578063715018a61461032f5780638da5cb5b1461033957806395d89b411461035757610142565b806326181e6d1161010a57806326181e6d146101fd57806332cb6b0c14610219578063369aafd31461023757806342842e0e14610253578063569be2ce1461026f5780635e8be1901461029f57610142565b806301ffc9a71461014757806306fdde0314610177578063081812fc14610195578063095ea7b3146101c557806323b872dd146101e1575b600080fd5b610161600480360381019061015c9190612460565b61045f565b60405161016e91906124a8565b60405180910390f35b61017f610541565b60405161018c9190612553565b60405180910390f35b6101af60048036038101906101aa91906125ab565b6105d3565b6040516101bc9190612619565b60405180910390f35b6101df60048036038101906101da9190612660565b6105ef565b005b6101fb60048036038101906101f691906126a0565b610605565b005b6102176004803603810190610212919061276d565b610707565b005b6102216108ae565b60405161022e91906127cf565b60405180910390f35b610251600480360381019061024c91906127ea565b6108d2565b005b61026d600480360381019061026891906126a0565b610a5f565b005b6102896004803603810190610284919061295f565b610a7f565b6040516102969190612a0d565b60405180910390f35b6102b960048036038101906102b491906125ab565b610ca0565b6040516102c69190612b49565b60405180910390f35b6102e960048036038101906102e491906125ab565b610f4b565b6040516102f69190612619565b60405180910390f35b61031960048036038101906103149190612b6b565b610f5d565b6040516103269190612a0d565b60405180910390f35b610337611017565b005b61034161102b565b60405161034e9190612619565b60405180910390f35b61035f611055565b60405161036c9190612553565b60405180910390f35b61038f600480360381019061038a9190612bc4565b6110e7565b005b6103ab60048036038101906103a69190612ca5565b6110fd565b005b6103c760048036038101906103c291906125ab565b61111a565b6040516103d49190612553565b60405180910390f35b6103f760048036038101906103f29190612d28565b611183565b60405161040491906124a8565b60405180910390f35b61042760048036038101906104229190612b6b565b611217565b005b610443600480360381019061043e91906125ab565b61129d565b6040516104569796959493929190612d77565b60405180910390f35b60007f80ac58cd000000000000000000000000000000000000000000000000000000007bffffffffffffffffffffffffffffffffffffffffffffffffffffffff1916827bffffffffffffffffffffffffffffffffffffffffffffffffffffffff1916148061052a57507f5b5e139f000000000000000000000000000000000000000000000000000000007bffffffffffffffffffffffffffffffffffffffffffffffffffffffff1916827bffffffffffffffffffffffffffffffffffffffffffffffffffffffff1916145b8061053a5750610539826114c7565b5b9050919050565b60606000805461055090612e2a565b80601f016020809104026020016040519081016040528092919081815260200182805461057c90612e2a565b80156105c95780601f1061059e576101008083540402835291602001916105c9565b820191906000526020600020905b8154815290600101906020018083116105ac57829003601f168201915b5050505050905090565b60006105de82611531565b506105e8826115b9565b9050919050565b61060182826105fc6115f6565b6115fe565b5050565b600073ffffffffffffffffffffffffffffffffffffffff168273ffffffffffffffffffffffffffffffffffffffff16036106775760006040517f64a0ae9200000000000000000000000000000000000000000000000000000000815260040161066e9190612619565b60405180910390fd5b600061068b83836106866115f6565b611610565b90508373ffffffffffffffffffffffffffffffffffffffff168173ffffffffffffffffffffffffffffffffffffffff1614610701578382826040517f64283d7b0000000000000000000000000000000000000000000000000000000081526004016106f893929190612e5b565b60405180910390fd5b50505050565b3373ffffffffffffffffffffffffffffffffffffffff1660076000858152602001908152602001600020600201600c9054906101000a900473ffffffffffffffffffffffffffffffffffffffff1673ffffffffffffffffffffffffffffffffffffffff16146107ab576040517f08c379a00000000000000000000000000000000000000000000000000000000081526004016107a290612f04565b60405180910390fd5b816007600085815260200190815260200160002060020160026101000a81548161ffff021916908361ffff160217905550806007600085815260200190815260200160002060020160046101000a81548167ffffffffffffffff021916908367ffffffffffffffff1602179055506040518060400160405280600781526020017f496e2073616c650000000000000000000000000000000000000000000000000081525060076000858152602001908152602001600020600301908161087191906130d0565b507ffae35a20059195bca750bd674e1fcd7290511fa577d0117b86192836cef4aa45836040516108a191906131ee565b60405180910390a1505050565b7f000000000000000000000000000000000000000000000000000000000000000081565b3373ffffffffffffffffffffffffffffffffffffffff1660076000848152602001908152602001600020600201600c9054906101000a900473ffffffffffffffffffffffffffffffffffffffff1673ffffffffffffffffffffffffffffffffffffffff1614610976576040517f08c379a000000000000000000000000000000000000000000000000000000000815260040161096d90612f04565b60405180910390fd5b6040518060400160405280600481526020017f536f6c64000000000000000000000000000000000000000000000000000000008152506007600084815260200190815260200160002060030190816109ce91906130d0565b507ffae35a20059195bca750bd674e1fcd7290511fa577d0117b86192836cef4aa45826040516109fe9190613268565b60405180910390a18060076000848152602001908152602001600020600201600c6101000a81548173ffffffffffffffffffffffffffffffffffffffff021916908373ffffffffffffffffffffffffffffffffffffffff1602179055505050565b610a7a838383604051806020016040528060008152506110fd565b505050565b6000610a8961182a565b60006040518060e001604052808781526020018681526020018561ffff1681526020018461ffff168152602001600067ffffffffffffffff1681526020013373ffffffffffffffffffffffffffffffffffffffff1681526020016040518060400160405280600781526020017f50726573616c650000000000000000000000000000000000000000000000000081525081525090506000600854905081600760008381526020019081526020016000206000820151816000019081610b4e91906130d0565b506020820151816001019081610b6491906130d0565b5060408201518160020160006101000a81548161ffff021916908361ffff16021790555060608201518160020160026101000a81548161ffff021916908361ffff16021790555060808201518160020160046101000a81548167ffffffffffffffff021916908367ffffffffffffffff16021790555060a082015181600201600c6101000a81548173ffffffffffffffffffffffffffffffffffffffff021916908373ffffffffffffffffffffffffffffffffffffffff16021790555060c0820151816003019081610c3691906130d0565b50905050610c4433826118b1565b7f2a12d21614415a5e03f34ee105ad852121372af319d6395bf54f103e875733cb82604051610c739190612b49565b60405180910390a160086000815480929190610c8e906132c5565b91905055508092505050949350505050565b610ca861238f565b600760008381526020019081526020016000206040518060e0016040529081600082018054610cd690612e2a565b80601f0160208091040260200160405190810160405280929190818152602001828054610d0290612e2a565b8015610d4f5780601f10610d2457610100808354040283529160200191610d4f565b820191906000526020600020905b815481529060010190602001808311610d3257829003601f168201915b50505050508152602001600182018054610d6890612e2a565b80601f0160208091040260200160405190810160405280929190818152602001828054610d9490612e2a565b8015610de15780601f10610db657610100808354040283529160200191610de1565b820191906000526020600020905b815481529060010190602001808311610dc457829003601f168201915b505050505081526020016002820160009054906101000a900461ffff1661ffff1661ffff1681526020016002820160029054906101000a900461ffff1661ffff1661ffff1681526020016002820160049054906101000a900467ffffffffffffffff1667ffffffffffffffff1667ffffffffffffffff16815260200160028201600c9054906101000a900473ffffffffffffffffffffffffffffffffffffffff1673ffffffffffffffffffffffffffffffffffffffff1673ffffffffffffffffffffffffffffffffffffffff168152602001600382018054610ec290612e2a565b80601f0160208091040260200160405190810160405280929190818152602001828054610eee90612e2a565b8015610f3b5780601f10610f1057610100808354040283529160200191610f3b565b820191906000526020600020905b815481529060010190602001808311610f1e57829003601f168201915b5050505050815250509050919050565b6000610f5682611531565b9050919050565b60008073ffffffffffffffffffffffffffffffffffffffff168273ffffffffffffffffffffffffffffffffffffffff1603610fd05760006040517f89c62b64000000000000000000000000000000000000000000000000000000008152600401610fc79190612619565b60405180910390fd5b600360008373ffffffffffffffffffffffffffffffffffffffff1673ffffffffffffffffffffffffffffffffffffffff168152602001908152602001600020549050919050565b61101f61182a565b61102960006118cf565b565b6000600660009054906101000a900473ffffffffffffffffffffffffffffffffffffffff16905090565b60606001805461106490612e2a565b80601f016020809104026020016040519081016040528092919081815260200182805461109090612e2a565b80156110dd5780601f106110b2576101008083540402835291602001916110dd565b820191906000526020600020905b8154815290600101906020018083116110c057829003601f168201915b5050505050905090565b6110f96110f26115f6565b8383611995565b5050565b611108848484610605565b61111484848484611b04565b50505050565b606061112582611531565b506000611130611cbb565b90506000815111611150576040518060200160405280600081525061117b565b8061115a84611cd2565b60405160200161116b929190613349565b6040516020818303038152906040525b915050919050565b6000600560008473ffffffffffffffffffffffffffffffffffffffff1673ffffffffffffffffffffffffffffffffffffffff16815260200190815260200160002060008373ffffffffffffffffffffffffffffffffffffffff1673ffffffffffffffffffffffffffffffffffffffff16815260200190815260200160002060009054906101000a900460ff16905092915050565b61121f61182a565b600073ffffffffffffffffffffffffffffffffffffffff168173ffffffffffffffffffffffffffffffffffffffff16036112915760006040517f1e4fbdf70000000000000000000000000000000000000000000000000000000081526004016112889190612619565b60405180910390fd5b61129a816118cf565b50565b60076020528060005260406000206000915090508060000180546112c090612e2a565b80601f01602080910402602001604051908101604052809291908181526020018280546112ec90612e2a565b80156113395780601f1061130e57610100808354040283529160200191611339565b820191906000526020600020905b81548152906001019060200180831161131c57829003601f168201915b50505050509080600101805461134e90612e2a565b80601f016020809104026020016040519081016040528092919081815260200182805461137a90612e2a565b80156113c75780601f1061139c576101008083540402835291602001916113c7565b820191906000526020600020905b8154815290600101906020018083116113aa57829003601f168201915b5050505050908060020160009054906101000a900461ffff16908060020160029054906101000a900461ffff16908060020160049054906101000a900467ffffffffffffffff169080600201600c9054906101000a900473ffffffffffffffffffffffffffffffffffffffff169080600301805461144490612e2a565b80601f016020809104026020016040519081016040528092919081815260200182805461147090612e2a565b80156114bd5780601f10611492576101008083540402835291602001916114bd565b820191906000526020600020905b8154815290600101906020018083116114a057829003601f168201915b5050505050905087565b60007f01ffc9a7000000000000000000000000000000000000000000000000000000007bffffffffffffffffffffffffffffffffffffffffffffffffffffffff1916827bffffffffffffffffffffffffffffffffffffffffffffffffffffffff1916149050919050565b60008061153d83611da0565b9050600073ffffffffffffffffffffffffffffffffffffffff168173ffffffffffffffffffffffffffffffffffffffff16036115b057826040517f7e2732890000000000000000000000000000000000000000000000000000000081526004016115a79190612a0d565b60405180910390fd5b80915050919050565b60006004600083815260200190815260200160002060009054906101000a900473ffffffffffffffffffffffffffffffffffffffff169050919050565b600033905090565b61160b8383836001611ddd565b505050565b60008061161c84611da0565b9050600073ffffffffffffffffffffffffffffffffffffffff168373ffffffffffffffffffffffffffffffffffffffff161461165e5761165d818486611fa2565b5b600073ffffffffffffffffffffffffffffffffffffffff168173ffffffffffffffffffffffffffffffffffffffff16146116ef576116a0600085600080611ddd565b6001600360008373ffffffffffffffffffffffffffffffffffffffff1673ffffffffffffffffffffffffffffffffffffffff168152602001908152602001600020600082825403925050819055505b600073ffffffffffffffffffffffffffffffffffffffff168573ffffffffffffffffffffffffffffffffffffffff1614611772576001600360008773ffffffffffffffffffffffffffffffffffffffff1673ffffffffffffffffffffffffffffffffffffffff168152602001908152602001600020600082825401925050819055505b846002600086815260200190815260200160002060006101000a81548173ffffffffffffffffffffffffffffffffffffffff021916908373ffffffffffffffffffffffffffffffffffffffff160217905550838573ffffffffffffffffffffffffffffffffffffffff168273ffffffffffffffffffffffffffffffffffffffff167fddf252ad1be2c89b69c2b068fc378daa952ba7f163c4a11628f55a4df523b3ef60405160405180910390a4809150509392505050565b6118326115f6565b73ffffffffffffffffffffffffffffffffffffffff1661185061102b565b73ffffffffffffffffffffffffffffffffffffffff16146118af576118736115f6565b6040517f118cdaa70000000000000000000000000000000000000000000000000000000081526004016118a69190612619565b60405180910390fd5b565b6118cb828260405180602001604052806000815250612066565b5050565b6000600660009054906101000a900473ffffffffffffffffffffffffffffffffffffffff16905081600660006101000a81548173ffffffffffffffffffffffffffffffffffffffff021916908373ffffffffffffffffffffffffffffffffffffffff1602179055508173ffffffffffffffffffffffffffffffffffffffff168173ffffffffffffffffffffffffffffffffffffffff167f8be0079c531659141344cd1fd0a4f28419497f9722a3daafe3b4186f6b6457e060405160405180910390a35050565b600073ffffffffffffffffffffffffffffffffffffffff168273ffffffffffffffffffffffffffffffffffffffff1603611a0657816040517f5b08ba180000000000000000000000000000000000000000000000000000000081526004016119fd9190612619565b60405180910390fd5b80600560008573ffffffffffffffffffffffffffffffffffffffff1673ffffffffffffffffffffffffffffffffffffffff16815260200190815260200160002060008473ffffffffffffffffffffffffffffffffffffffff1673ffffffffffffffffffffffffffffffffffffffff16815260200190815260200160002060006101000a81548160ff0219169083151502179055508173ffffffffffffffffffffffffffffffffffffffff168373ffffffffffffffffffffffffffffffffffffffff167f17307eab39ab6107e8899845ad3d59bd9653f200f220920489ca2b5937696c3183604051611af791906124a8565b60405180910390a3505050565b60008373ffffffffffffffffffffffffffffffffffffffff163b1115611cb5578273ffffffffffffffffffffffffffffffffffffffff1663150b7a02611b486115f6565b8685856040518563ffffffff1660e01b8152600401611b6a94939291906133c2565b6020604051808303816000875af1925050508015611ba657506040513d601f19601f82011682018060405250810190611ba39190613423565b60015b611c2a573d8060008114611bd6576040519150601f19603f3d011682016040523d82523d6000602084013e611bdb565b606091505b506000815103611c2257836040517f64a0ae92000000000000000000000000000000000000000000000000000000008152600401611c199190612619565b60405180910390fd5b805181602001fd5b63150b7a0260e01b7bffffffffffffffffffffffffffffffffffffffffffffffffffffffff1916817bffffffffffffffffffffffffffffffffffffffffffffffffffffffff191614611cb357836040517f64a0ae92000000000000000000000000000000000000000000000000000000008152600401611caa9190612619565b60405180910390fd5b505b50505050565b606060405180602001604052806000815250905090565b606060006001611ce184612082565b01905060008167ffffffffffffffff811115611d0057611cff612834565b5b6040519080825280601f01601f191660200182016040528015611d325781602001600182028036833780820191505090505b509050600082602001820190505b600115611d95578080600190039150507f3031323334353637383961626364656600000000000000000000000000000000600a86061a8153600a8581611d8957611d88613450565b5b04945060008503611d40575b819350505050919050565b60006002600083815260200190815260200160002060009054906101000a900473ffffffffffffffffffffffffffffffffffffffff169050919050565b8080611e165750600073ffffffffffffffffffffffffffffffffffffffff168273ffffffffffffffffffffffffffffffffffffffff1614155b15611f4a576000611e2684611531565b9050600073ffffffffffffffffffffffffffffffffffffffff168373ffffffffffffffffffffffffffffffffffffffff1614158015611e9157508273ffffffffffffffffffffffffffffffffffffffff168173ffffffffffffffffffffffffffffffffffffffff1614155b8015611ea45750611ea28184611183565b155b15611ee657826040517fa9fbf51f000000000000000000000000000000000000000000000000000000008152600401611edd9190612619565b60405180910390fd5b8115611f4857838573ffffffffffffffffffffffffffffffffffffffff168273ffffffffffffffffffffffffffffffffffffffff167f8c5be1e5ebec7d5bd14f71427d1e84f3dd0314c0f7b2291e5b200ac8c7c3b92560405160405180910390a45b505b836004600085815260200190815260200160002060006101000a81548173ffffffffffffffffffffffffffffffffffffffff021916908373ffffffffffffffffffffffffffffffffffffffff16021790555050505050565b611fad8383836121d5565b61206157600073ffffffffffffffffffffffffffffffffffffffff168373ffffffffffffffffffffffffffffffffffffffff160361202257806040517f7e2732890000000000000000000000000000000000000000000000000000000081526004016120199190612a0d565b60405180910390fd5b81816040517f177e802f00000000000000000000000000000000000000000000000000000000815260040161205892919061347f565b60405180910390fd5b505050565b6120708383612296565b61207d6000848484611b04565b505050565b600080600090507a184f03e93ff9f4daa797ed6e38ed64bf6a1f01000000000000000083106120e0577a184f03e93ff9f4daa797ed6e38ed64bf6a1f01000000000000000083816120d6576120d5613450565b5b0492506040810190505b6d04ee2d6d415b85acef8100000000831061211d576d04ee2d6d415b85acef8100000000838161211357612112613450565b5b0492506020810190505b662386f26fc10000831061214c57662386f26fc10000838161214257612141613450565b5b0492506010810190505b6305f5e1008310612175576305f5e100838161216b5761216a613450565b5b0492506008810190505b612710831061219a5761271083816121905761218f613450565b5b0492506004810190505b606483106121bd57606483816121b3576121b2613450565b5b0492506002810190505b600a83106121cc576001810190505b80915050919050565b60008073ffffffffffffffffffffffffffffffffffffffff168373ffffffffffffffffffffffffffffffffffffffff161415801561228d57508273ffffffffffffffffffffffffffffffffffffffff168473ffffffffffffffffffffffffffffffffffffffff16148061224e575061224d8484611183565b5b8061228c57508273ffffffffffffffffffffffffffffffffffffffff16612274836115b9565b73ffffffffffffffffffffffffffffffffffffffff16145b5b90509392505050565b600073ffffffffffffffffffffffffffffffffffffffff168273ffffffffffffffffffffffffffffffffffffffff16036123085760006040517f64a0ae920000000000000000000000000000000000000000000000000000000081526004016122ff9190612619565b60405180910390fd5b600061231683836000611610565b9050600073ffffffffffffffffffffffffffffffffffffffff168173ffffffffffffffffffffffffffffffffffffffff161461238a5760006040517f73c6ac6e0000000000000000000000000000000000000000000000000000000081526004016123819190612619565b60405180910390fd5b505050565b6040518060e001604052806060815260200160608152602001600061ffff168152602001600061ffff168152602001600067ffffffffffffffff168152602001600073ffffffffffffffffffffffffffffffffffffffff168152602001606081525090565b6000604051905090565b600080fd5b600080fd5b60007fffffffff0000000000000000000000000000000000000000000000000000000082169050919050565b61243d81612408565b811461244857600080fd5b50565b60008135905061245a81612434565b92915050565b600060208284031215612476576124756123fe565b5b60006124848482850161244b565b91505092915050565b60008115159050919050565b6124a28161248d565b82525050565b60006020820190506124bd6000830184612499565b92915050565b600081519050919050565b600082825260208201905092915050565b60005b838110156124fd5780820151818401526020810190506124e2565b60008484015250505050565b6000601f19601f8301169050919050565b6000612525826124c3565b61252f81856124ce565b935061253f8185602086016124df565b61254881612509565b840191505092915050565b6000602082019050818103600083015261256d818461251a565b905092915050565b6000819050919050565b61258881612575565b811461259357600080fd5b50565b6000813590506125a58161257f565b92915050565b6000602082840312156125c1576125c06123fe565b5b60006125cf84828501612596565b91505092915050565b600073ffffffffffffffffffffffffffffffffffffffff82169050919050565b6000612603826125d8565b9050919050565b612613816125f8565b82525050565b600060208201905061262e600083018461260a565b92915050565b61263d816125f8565b811461264857600080fd5b50565b60008135905061265a81612634565b92915050565b60008060408385031215612677576126766123fe565b5b60006126858582860161264b565b925050602061269685828601612596565b9150509250929050565b6000806000606084860312156126b9576126b86123fe565b5b60006126c78682870161264b565b93505060206126d88682870161264b565b92505060406126e986828701612596565b9150509250925092565b600061ffff82169050919050565b61270a816126f3565b811461271557600080fd5b50565b60008135905061272781612701565b92915050565b600067ffffffffffffffff82169050919050565b61274a8161272d565b811461275557600080fd5b50565b60008135905061276781612741565b92915050565b600080600060608486031215612786576127856123fe565b5b600061279486828701612596565b93505060206127a586828701612718565b92505060406127b686828701612758565b9150509250925092565b6127c9816126f3565b82525050565b60006020820190506127e460008301846127c0565b92915050565b60008060408385031215612801576128006123fe565b5b600061280f85828601612596565b92505060206128208582860161264b565b9150509250929050565b600080fd5b600080fd5b7f4e487b7100000000000000000000000000000000000000000000000000000000600052604160045260246000fd5b61286c82612509565b810181811067ffffffffffffffff8211171561288b5761288a612834565b5b80604052505050565b600061289e6123f4565b90506128aa8282612863565b919050565b600067ffffffffffffffff8211156128ca576128c9612834565b5b6128d382612509565b9050602081019050919050565b82818337600083830152505050565b60006129026128fd846128af565b612894565b90508281526020810184848401111561291e5761291d61282f565b5b6129298482856128e0565b509392505050565b600082601f8301126129465761294561282a565b5b81356129568482602086016128ef565b91505092915050565b60008060008060808587031215612979576129786123fe565b5b600085013567ffffffffffffffff81111561299757612996612403565b5b6129a387828801612931565b945050602085013567ffffffffffffffff8111156129c4576129c3612403565b5b6129d087828801612931565b93505060406129e187828801612718565b92505060606129f287828801612718565b91505092959194509250565b612a0781612575565b82525050565b6000602082019050612a2260008301846129fe565b92915050565b600082825260208201905092915050565b6000612a44826124c3565b612a4e8185612a28565b9350612a5e8185602086016124df565b612a6781612509565b840191505092915050565b612a7b816126f3565b82525050565b612a8a8161272d565b82525050565b612a99816125f8565b82525050565b600060e0830160008301518482036000860152612abc8282612a39565b91505060208301518482036020860152612ad68282612a39565b9150506040830151612aeb6040860182612a72565b506060830151612afe6060860182612a72565b506080830151612b116080860182612a81565b5060a0830151612b2460a0860182612a90565b5060c083015184820360c0860152612b3c8282612a39565b9150508091505092915050565b60006020820190508181036000830152612b638184612a9f565b905092915050565b600060208284031215612b8157612b806123fe565b5b6000612b8f8482850161264b565b91505092915050565b612ba18161248d565b8114612bac57600080fd5b50565b600081359050612bbe81612b98565b92915050565b60008060408385031215612bdb57612bda6123fe565b5b6000612be98582860161264b565b9250506020612bfa85828601612baf565b9150509250929050565b600067ffffffffffffffff821115612c1f57612c1e612834565b5b612c2882612509565b9050602081019050919050565b6000612c48612c4384612c04565b612894565b905082815260208101848484011115612c6457612c6361282f565b5b612c6f8482856128e0565b509392505050565b600082601f830112612c8c57612c8b61282a565b5b8135612c9c848260208601612c35565b91505092915050565b60008060008060808587031215612cbf57612cbe6123fe565b5b6000612ccd8782880161264b565b9450506020612cde8782880161264b565b9350506040612cef87828801612596565b925050606085013567ffffffffffffffff811115612d1057612d0f612403565b5b612d1c87828801612c77565b91505092959194509250565b60008060408385031215612d3f57612d3e6123fe565b5b6000612d4d8582860161264b565b9250506020612d5e8582860161264b565b9150509250929050565b612d718161272d565b82525050565b600060e0820190508181036000830152612d91818a61251a565b90508181036020830152612da5818961251a565b9050612db460408301886127c0565b612dc160608301876127c0565b612dce6080830186612d68565b612ddb60a083018561260a565b81810360c0830152612ded818461251a565b905098975050505050505050565b7f4e487b7100000000000000000000000000000000000000000000000000000000600052602260045260246000fd5b60006002820490506001821680612e4257607f821691505b602082108103612e5557612e54612dfb565b5b50919050565b6000606082019050612e70600083018661260a565b612e7d60208301856129fe565b612e8a604083018461260a565b949350505050565b7f596f7520617265206e6f7420746865206f776e6572206f66207468697320636160008201527f7200000000000000000000000000000000000000000000000000000000000000602082015250565b6000612eee6021836124ce565b9150612ef982612e92565b604082019050919050565b60006020820190508181036000830152612f1d81612ee1565b9050919050565b60008190508160005260206000209050919050565b60006020601f8301049050919050565b600082821b905092915050565b600060088302612f867fffffffffffffffffffffffffffffffffffffffffffffffffffffffffffffffff82612f49565b612f908683612f49565b95508019841693508086168417925050509392505050565b6000819050919050565b6000612fcd612fc8612fc384612575565b612fa8565b612575565b9050919050565b6000819050919050565b612fe783612fb2565b612ffb612ff382612fd4565b848454612f56565b825550505050565b600090565b613010613003565b61301b818484612fde565b505050565b5b8181101561303f57613034600082613008565b600181019050613021565b5050565b601f8211156130845761305581612f24565b61305e84612f39565b8101602085101561306d578190505b61308161307985612f39565b830182613020565b50505b505050565b600082821c905092915050565b60006130a760001984600802613089565b1980831691505092915050565b60006130c08383613096565b9150826002028217905092915050565b6130d9826124c3565b67ffffffffffffffff8111156130f2576130f1612834565b5b6130fc8254612e2a565b613107828285613043565b600060209050601f83116001811461313a5760008415613128578287015190505b61313285826130b4565b86555061319a565b601f19841661314886612f24565b60005b828110156131705784890151825560018201915060208501945060208101905061314b565b8683101561318d5784890151613189601f891682613096565b8355505b6001600288020188555050505b505050505050565b7f496e2073616c6500000000000000000000000000000000000000000000000000600082015250565b60006131d86007836124ce565b91506131e3826131a2565b602082019050919050565b600060408201905061320360008301846129fe565b8181036020830152613214816131cb565b905092915050565b7f536f6c6400000000000000000000000000000000000000000000000000000000600082015250565b60006132526004836124ce565b915061325d8261321c565b602082019050919050565b600060408201905061327d60008301846129fe565b818103602083015261328e81613245565b905092915050565b7f4e487b7100000000000000000000000000000000000000000000000000000000600052601160045260246000fd5b60006132d082612575565b91507fffffffffffffffffffffffffffffffffffffffffffffffffffffffffffffffff820361330257613301613296565b5b600182019050919050565b600081905092915050565b6000613323826124c3565b61332d818561330d565b935061333d8185602086016124df565b80840191505092915050565b60006133558285613318565b91506133618284613318565b91508190509392505050565b600081519050919050565b600082825260208201905092915050565b60006133948261336d565b61339e8185613378565b93506133ae8185602086016124df565b6133b781612509565b840191505092915050565b60006080820190506133d7600083018761260a565b6133e4602083018661260a565b6133f160408301856129fe565b81810360608301526134038184613389565b905095945050505050565b60008151905061341d81612434565b92915050565b600060208284031215613439576134386123fe565b5b60006134478482850161340e565b91505092915050565b7f4e487b7100000000000000000000000000000000000000000000000000000000600052601260045260246000fd5b6000604082019050613494600083018561260a565b6134a160208301846129fe565b939250505056fea2646970667358221220abb8e7ca79be4799af1deb2eb1b359c0d1eb0cbe9a116d4ce8bcea57dab2b37264736f6c63430008190033",
  "linkReferences": {},
  "deployedLinkReferences": {}
}